{
  "contractName": "ManageBooks",
  "abi": [
    {
      "constant": true,
      "inputs": [
        {
          "name": "",
          "type": "uint256"
        }
      ],
      "name": "books",
      "outputs": [
        {
          "name": "title",
          "type": "string"
        },
        {
          "name": "author",
          "type": "string"
        },
        {
          "name": "category",
          "type": "string"
        },
        {
          "name": "status",
          "type": "uint256"
        }
      ],
      "payable": false,
      "stateMutability": "view",
      "type": "function"
    },
    {
      "constant": true,
      "inputs": [],
      "name": "bookNumber",
      "outputs": [
        {
          "name": "",
          "type": "uint256"
        }
      ],
      "payable": false,
      "stateMutability": "view",
      "type": "function"
    },
    {
      "inputs": [],
      "payable": false,
      "stateMutability": "nonpayable",
      "type": "constructor"
    },
    {
      "anonymous": false,
      "inputs": [],
      "name": "Loaned",
      "type": "event"
    },
    {
      "anonymous": false,
      "inputs": [],
      "name": "InLibrary",
      "type": "event"
    },
    {
      "anonymous": false,
      "inputs": [],
      "name": "BookAdded",
      "type": "event"
    },
    {
      "constant": false,
      "inputs": [
        {
          "name": "_title",
          "type": "string"
        },
        {
          "name": "_author",
          "type": "string"
        },
        {
          "name": "_category",
          "type": "string"
        },
        {
          "name": "_status",
          "type": "uint256"
        }
      ],
      "name": "addBook",
      "outputs": [],
      "payable": false,
      "stateMutability": "nonpayable",
      "type": "function"
    },
    {
      "constant": false,
      "inputs": [
        {
          "name": "bookId",
          "type": "uint256"
        }
      ],
      "name": "loanBook",
      "outputs": [],
      "payable": false,
      "stateMutability": "nonpayable",
      "type": "function"
    },
    {
      "constant": false,
      "inputs": [
        {
          "name": "bookId",
          "type": "uint256"
        }
      ],
      "name": "returnBook",
      "outputs": [],
      "payable": false,
      "stateMutability": "nonpayable",
      "type": "function"
    }
  ],
  "bytecode": "0x608060405234801561001057600080fd5b506100c36040518060400160405280600f81526020017f466972737420426f6f6b205465737400000000000000000000000000000000008152506040518060400160405280600b81526020017f5465737420417574686f720000000000000000000000000000000000000000008152506040518060400160405280600781526020017f46696374696f6e0000000000000000000000000000000000000000000000000081525060006100c860201b60201c565b61024a565b6001600081548092919060010191905055506040518060800160405280858152602001848152602001838152602001828152506000806001548152602001908152602001600020600082015181600001908051906020019061012b9291906101a5565b5060208201518160010190805190602001906101489291906101a5565b5060408201518160020190805190602001906101659291906101a5565b50606082015181600301559050507fd828d614d92de1a809a50d629d1407aabcbfedcd35e94206fcbcb7f7b02046d360405160405180910390a150505050565b828054600181600116156101000203166002900490600052602060002090601f016020900481019282601f106101e657805160ff1916838001178555610214565b82800160010185558215610214579182015b828111156102135782518255916020019190600101906101f8565b5b5090506102219190610225565b5090565b61024791905b8082111561024357600081600090555060010161022b565b5090565b90565b61090b806102596000396000f3fe608060405234801561001057600080fd5b50600436106100575760003560e01c806345e6df3d1461005c578063687440461461024f57806372e23267146103d5578063ca5140c914610403578063f25af5df14610431575b600080fd5b61024d6004803603608081101561007257600080fd5b810190808035906020019064010000000081111561008f57600080fd5b8201836020820111156100a157600080fd5b803590602001918460018302840111640100000000831117156100c357600080fd5b91908080601f016020809104026020016040519081016040528093929190818152602001838380828437600081840152601f19601f8201169050808301925050505050505091929192908035906020019064010000000081111561012657600080fd5b82018360208201111561013857600080fd5b8035906020019184600183028401116401000000008311171561015a57600080fd5b91908080601f016020809104026020016040519081016040528093929190818152602001838380828437600081840152601f19601f820116905080830192505050505050509192919290803590602001906401000000008111156101bd57600080fd5b8201836020820111156101cf57600080fd5b803590602001918460018302840111640100000000831117156101f157600080fd5b91908080601f016020809104026020016040519081016040528093929190818152602001838380828437600081840152601f19601f8201169050808301925050505050505091929192908035906020019092919050505061044f565b005b61027b6004803603602081101561026557600080fd5b810190808035906020019092919050505061052c565b60405180806020018060200180602001858152602001848103845288818151815260200191508051906020019080838360005b838110156102c95780820151818401526020810190506102ae565b50505050905090810190601f1680156102f65780820380516001836020036101000a031916815260200191505b50848103835287818151815260200191508051906020019080838360005b8381101561032f578082015181840152602081019050610314565b50505050905090810190601f16801561035c5780820380516001836020036101000a031916815260200191505b50848103825286818151815260200191508051906020019080838360005b8381101561039557808201518184015260208101905061037a565b50505050905090810190601f1680156103c25780820380516001836020036101000a031916815260200191505b5097505050505050505060405180910390f35b610401600480360360208110156103eb57600080fd5b8101908080359060200190929190505050610724565b005b61042f6004803603602081101561041957600080fd5b81019080803590602001909291905050506107ac565b005b610439610834565b6040518082815260200191505060405180910390f35b600160008154809291906001019190505550604051806080016040528085815260200184815260200183815260200182815250600080600154815260200190815260200160002060008201518160000190805190602001906104b292919061083a565b5060208201518160010190805190602001906104cf92919061083a565b5060408201518160020190805190602001906104ec92919061083a565b50606082015181600301559050507fd828d614d92de1a809a50d629d1407aabcbfedcd35e94206fcbcb7f7b02046d360405160405180910390a150505050565b6000602052806000526040600020600091509050806000018054600181600116156101000203166002900480601f0160208091040260200160405190810160405280929190818152602001828054600181600116156101000203166002900480156105d85780601f106105ad576101008083540402835291602001916105d8565b820191906000526020600020905b8154815290600101906020018083116105bb57829003601f168201915b505050505090806001018054600181600116156101000203166002900480601f0160208091040260200160405190810160405280929190818152602001828054600181600116156101000203166002900480156106765780601f1061064b57610100808354040283529160200191610676565b820191906000526020600020905b81548152906001019060200180831161065957829003601f168201915b505050505090806002018054600181600116156101000203166002900480601f0160208091040260200160405190810160405280929190818152602001828054600181600116156101000203166002900480156107145780601f106106e957610100808354040283529160200191610714565b820191906000526020600020905b8154815290600101906020018083116106f757829003601f168201915b5050505050908060030154905084565b60008111801561073657506001548111155b61073f57600080fd5b600080600083815260200190815260200160002060030154141561076257600080fd5b6000806000838152602001908152602001600020600301819055507f4ce8370514eca3b25e370eeb737a535a09acee6504cd28529f9015544cb911e360405160405180910390a150565b6000811180156107be57506001548111155b6107c757600080fd5b60016000808381526020019081526020016000206003015414156107ea57600080fd5b6001600080838152602001908152602001600020600301819055507fdd15ab28ee6e183341ca835cb8e2eb95d6ac4037cf265e3ca8e0a09d1c111fbe60405160405180910390a150565b60015481565b828054600181600116156101000203166002900490600052602060002090601f016020900481019282601f1061087b57805160ff19168380011785556108a9565b828001600101855582156108a9579182015b828111156108a857825182559160200191906001019061088d565b5b5090506108b691906108ba565b5090565b6108dc91905b808211156108d85760008160009055506001016108c0565b5090565b9056fea165627a7a72305820ee599e14d21c7b2d293f5946d2c243e45d8ac6be41298023b28c4caa77c70b250029",
  "source": "pragma solidity ^0.5.1;\r\n\r\ncontract ManageBooks {\r\n\r\n//TODO keep track of who's loaning books\r\n\tstruct Book {\r\n\t\tstring title;\r\n\t\tstring author;\r\n\t\tstring category;\r\n\t\tuint256 status;\r\n\t}\r\n\r\n\tmapping(uint256 => Book) public books;\r\n\r\n\tevent Loaned();\r\n\tevent InLibrary();\r\n\tevent BookAdded();\r\n\r\n\tuint public bookNumber;\r\n\r\n\tconstructor() public {\r\n\t\taddBook(\"First Book Test\", \"Test Author\", \"Fiction\", 0);\r\n\t}\r\n\r\n\tfunction addBook(string memory _title, string memory _author, string memory _category, uint256 _status) public {\r\n\t\tbookNumber++;\r\n\t\t//Status of 0 is on loan\r\n\t\t//Status of 1 is in library\r\n\t\tbooks[bookNumber] = Book(_title, _author, _category, _status);\r\n\t\temit BookAdded();\r\n\t}\r\n\r\n\tfunction loanBook(uint256 bookId) public {\r\n\t\t//Should check if book is in library before loaning\r\n\t\t//Should check that book ID exists\r\n\t\trequire(bookId > 0 && bookId <= bookNumber);\r\n\t\trequire(books[bookId].status != 0);\r\n\r\n\t\tbooks[bookId].status = 0;\r\n\t\temit Loaned();\r\n\t}\r\n\r\n\tfunction returnBook(uint256 bookId) public {\r\n\t\t//Should check if book is on loan before returning\r\n\t\t//Should check that book ID exists\r\n\t\trequire(bookId > 0 && bookId <= bookNumber);\r\n\t\trequire(books[bookId].status != 1);\r\n\r\n\t\tbooks[bookId].status = 1;\r\n\t\temit InLibrary();\r\n\t}\r\n}",
  "sourcePath": "/mnt/c/Users/Brianna/Documents/School Summer 2019/termProject/contracts/ManageBooks.sol",
  "compiler": {
    "name": "solc",
    "version": "0.5.8+commit.23d335f2.Emscripten.clang"
  },
  "schemaVersion": "3.0.11",
  "updatedAt": "2019-07-18T23:12:58.501Z",
  "devdoc": {
    "methods": {}
  },
  "userdoc": {
    "methods": {}
  }
}